:020000040800F2
:1000000040E803206D0C0008910B0008910B0008DC
:10001000910B0008910B0008910B000800000000F4
:10002000000000000000000000000000A90B000814
:10003000810C000800000000410C0008510C000871
:10004000870C0008870C0008870C0008870C000844
:10005000870C0008870C0008874C00089B4C0008A0
:10006000870C0008A54C0008AF4C0008870C00085E
:10007000870C0008870C0008054B00082D4B000872
:10008000870C0008870C0008C9450008870C000889
:10009000870C0008870C0008870C0008B94C000882
:1000A000870C0008870C0008870C0008870C0008E4
:1000B000870C0008870C0008870C00084D6D0008AD
:1000C0003D6D0008870C0008870C00081DB400086F
:1000D000870C0008870C0008870C0008870C0008B4
:1000E000914C0008870C0008870C0008870C00085A
:1000F000870C0008870C0008870C0008870C000894
:10010000000000005DB10008870C0008870C0008A3
:100110000000000000000000870C0008870C0008A9
:10012000870C0008870C0008870C0008554B000856
:10013000870C0008870C0008870C0008870C000853
:10014000870C0008870C0008870C00080DAC00081D
:10015000870C0008694B0008870C0008870C000812
:10016000870C0008870C0008000000000000000059
:10017000000000000000000000000000000000007F
:10018000870C0008870C0008000000000000000039
:10019000E9B40008870C000800000000000000001F
:1001A000000000000000000000000000000000004F
:1001B000870C00080000000000000000870C000809
:1001C000870C000800F002F800F0BCF80AA090E8E4
:1001D000000C82448344AAF10107DA4501D100F002
:1001E000B1F8AFF2090EBAE80F0013F0010F18BF13
:1001F000FB1A43F0010318478CE70300BCE7030038
:100200000A444FF0000C10F8013B13F0070408BF3C
:1002100010F8014B1D1108BF10F8015B641E05D0DA
:1002200010F8016B641E01F8016BF9D113F0080F8F
:100230001EBF10F8014BAD1C0C1B09D16D1E58BF21
:1002400001F801CBFAD505E014F8016B01F8016B58
:100250006D1EF9D59142D6D37047000000230024CB
:1002600000250026103A28BF78C1FBD8520728BFC6
:1002700030C148BF0B6070476E2901F0508770296C
:1002800001F01380662931F05281652931F04F81E8
:10029000672931F04C81612931F04B8103681B0AD9
:1002A00028BF41F08001692900F0EE86642900F042
:1002B000EB86752900F0E8866F2900F0A087782981
:1002C00000F0DF87E92901F09187E42901F08E87AA
:1002D000F52901F08B87EF2900F09D87F82900F0C0
:1002E000DE870368DB0928BF41F08001632901F044
:1002F0005A87732901F05F87E32901F06A87F329A0
:1003000001F06F87002070471FB531F00BF99DE8B1
:10031000030001F073FE01F054FE040000200021F0
:1003200031F0D4F8401C60600020002131F0E4F886
:10033000E06003F0ABF91FBD10B503F01FFA03F046
:10034000D3FA10BD03F0ABFA114603B412F046F82D
:1003500003BCFFF7D9FF1EF0CBFE03F0E9FC03B4AA
:10036000FFF7EAFF03BC01F01DFE00000246D2E8E1
:100370004F0FC2E8431F03B1F9E77047024652E846
:10038000000F40EA010042E8000303B1F7E77047BD
:1003900010B5024652E8000F20EA010442E800438B
:1003A00003B1F7E710BD10B5024652E8000F00EAAE
:1003B00001048C4203D0BFF32F8F002010BD20EA30
:1003C000010442E8004303B1EFE710BD10B5024657
:1003D00052E8000F084203D1BFF32F8F002010BD59
:1003E00020EA010442E8004303B1F1E710BD0246F0
:1003F00052E8000F411C42E8001303B1F8E77047D0
:1004000010B50246D2E85F0F814202D8BFF32F8FAA
:1004100010BD441CC2E8534F03B1F3E710BD10B543
:100420000246D2E85F0F441CA14200D80024C2E873
:10043000534F03B1F5E710BD024652E8000F411ECD
:1004400042E8001303B1F8E77047024652E8000F94
:1004500010B9BFF32F8F7047411E42E8001303B15C
:10046000F4E770470246D2E85F0F10B9BFF32F8F51
:100470007047411EC2E8531F03B1F4E770470246BC
:1004800052E8000F10B9BFF32F8F7047016842E8A0
:10049000001303B1F4E7704702680A60BFF35F8F8F
:1004A00050E8002F0B689342F6D140E8001303B1E7
:1004B000F2E770470246D2E84F0FC2E8431F03B18C
:1004C000F9E77047024652E8000F40EA010042E8AF
:1004D000000303B1F7E7704710B5024652E8000F7A
:1004E00020EA010442E8004303B1F7E710BD10B56C
:1004F000024652E8000F00EA01048C4203D0BFF329
:100500002F8F002010BD20EA010442E8004303B110
:10051000EFE710BD10B5024652E8000F084203D1C4
:10052000BFF32F8F002010BD20EA010442E80043F2
:1005300003B1F1E710BD024652E8000F411C42E84A
:10054000001303B1F8E7704710B50246D2E85F0F19
:10055000814202D8BFF32F8F10BD441CC2E8534F15
:1005600003B1F3E710BD10B50246D2E85F0F441C9B
:10057000A14200D80024C2E8534F03B1F5E710BDF3
:10058000024652E8000F411E42E8001303B1F8E7AB
:100590007047024652E8000F10B9BFF32F8F704723
:1005A000411E42E8001303B1F4E770470246D2E867
:1005B0005F0F10B9BFF32F8F7047411EC2E8531F62
:1005C00003B1F4E77047024652E8000F10B9BFF3D9
:1005D0002F8F7047016842E8001303B1F4E77047BA
:1005E00002680A60BFF35F8F50E8002F0B689342E8
:1005F000F6D140E8001303B1F2E770470246D2E8B3
:100600004F0FC2E8431F03B1F9E77047024652E8B3
:10061000000F40EA010042E8000303B1F7E770472A
:1006200010B5024652E8000F20EA010442E80043F8
:1006300003B1F7E710BD10B5024652E8000F00EA1B
:1006400001048C4203D0BFF32F8F002010BD20EA9D
:10065000010442E8004303B1EFE710BD10B50246C4
:1006600052E8000F084203D1BFF32F8F002010BDC6
:1006700020EA010442E8004303B1F1E710BD02465D
:1006800052E8000F411C42E8001303B1F8E770473D
:1006900010B50246D2E85F0F814202D8BFF32F8F18
:1006A00010BD441CC2E8534F03B1F3E710BD10B5B1
:1006B0000246D2E85F0F441CA14200D80024C2E8E1
:1006C000534F03B1F5E710BD024652E8000F411E3B
:1006D00042E8001303B1F8E77047024652E8000F02
:1006E00010B9BFF32F8F7047411E42E8001303B1CA
:1006F000F4E770470246D2E85F0F10B9BFF32F8FBF
:100700007047411EC2E8531F03B1F4E77047024629
:1007100052E8000F10B9BFF32F8F7047016842E80D
:10072000001303B1F4E7704702680A60BFF35F8FFC
:1007300050E8002F0B689342F6D140E8001303B154
:10074000F2E770470246D2E84F0FC2E8431F03B1F9
:10075000F9E77047024652E8000F40EA010042E81C
:10076000000303B1F7E7704710B5024652E8000FE7
:1007700020EA010442E8004303B1F7E710BD10B5D9
:10078000024652E8000F00EA01048C4203D0BFF396
:100790002F8F002010BD20EA010442E8004303B17E
:1007A000EFE710BD10B5024652E8000F084203D132
:1007B000BFF32F8F002010BD20EA010442E8004360
:1007C00003B1F1E710BD024652E8000F411C42E8B8
:1007D000001303B1F8E7704710B50246D2E85F0F87
:1007E000814202D8BFF32F8F10BD441CC2E8534F83
:1007F00003B1F3E710BD10B50246D2E85F0F441C09
:10080000A14200D80024C2E8534F03B1F5E710BD60
:10081000024652E8000F411E42E8001303B1F8E718
:100820007047024652E8000F10B9BFF32F8F704790
:10083000411E42E8001303B1F4E770470246D2E8D4
:100840005F0F10B9BFF32F8F7047411EC2E8531FCF
:1008500003B1F4E77047024652E8000F10B9BFF346
:100860002F8F7047016842E8001303B1F4E7704727
:1008700002680A60BFF35F8F50E8002F0B68934255
:10088000F6D140E8001303B1F2E770470246D2E820
:100890004F0FC2E8431F03B1F9E77047024652E821
:1008A000000F40EA010042E8000303B1F7E7704798
:1008B00010B5024652E8000F20EA010442E8004366
:1008C00003B1F7E710BD10B5024652E8000F00EA89
:1008D00001048C4203D0BFF32F8F002010BD20EA0B
:1008E000010442E8004303B1EFE710BD10B5024632
:1008F00052E8000F084203D1BFF32F8F002010BD34
:1009000020EA010442E8004303B1F1E710BD0246CA
:1009100052E8000F411C42E8001303B1F8E77047AA
:1009200010B50246D2E85F0F814202D8BFF32F8F85
:1009300010BD441CC2E8534F03B1F3E710BD10B51E
:100940000246D2E85F0F441CA14200D80024C2E84E
:10095000534F03B1F5E710BD024652E8000F411EA8
:1009600042E8001303B1F8E77047024652E8000F6F
:1009700010B9BFF32F8F7047411E42E8001303B137
:10098000F4E770470246D2E85F0F10B9BFF32F8F2C
:100990007047411EC2E8531F03B1F4E77047024697
:1009A00052E8000F10B9BFF32F8F7047016842E87B
:1009B000001303B1F4E7704702680A60BFF35F8F6A
:1009C00050E8002F0B689342F6D140E8001303B1C2
:1009D000F2E770470246D2E84F0FC2E8431F03B167
:1009E000F9E77047024652E8000F40EA010042E88A
:1009F000000303B1F7E7704710B5024652E8000F55
:100A000020EA010442E8004303B1F7E710BD10B546
:100A1000024652E8000F00EA01048C4203D0BFF303
:100A20002F8F002010BD20EA010442E8004303B1EB
:100A3000EFE710BD10B5024652E8000F084203D19F
:100A4000BFF32F8F002010BD20EA010442E80043CD
:100A500003B1F1E710BD024652E8000F411C42E825
:100A6000001303B1F8E7704710B50246D2E85F0FF4
:100A7000814202D8BFF32F8F10BD441CC2E8534FF0
:100A800003B1F3E710BD10B50246D2E85F0F441C76
:100A9000A14200D80024C2E8534F03B1F5E710BDCE
:100AA000024652E8000F411E42E8001303B1F8E786
:100AB0007047024652E8000F10B9BFF32F8F7047FE
:100AC000411E42E8001303B1F4E770470246D2E842
:100AD0005F0F10B9BFF32F8F7047411EC2E8531F3D
:100AE00003B1F4E77047024652E8000F10B9BFF3B4
:100AF0002F8F7047016842E8001303B1F4E7704795
:100B000002680A60BFF35F8F50E8002F0B689342C2
:100B1000F6D140E8001303B1F2E770470246D2E88D
:100B20004F0F411CC2E8431F03B1F8E7704702466C
:100B300052E8000F411C42E8001303B1F8E7704788
:100B4000024652E8000F42E8001303B1F9E770478C
:100B5000024652E8000F830103D3BFF32F8F00201A
:100B6000704700F00040084342E8000303B1F0E79B
:100B70007047024652E8000F800103D2BFF32F8F67
:100B80000020704742E8001303B1F3E701207047EB
:100B90001EF0040FEFF3088018BFEFF309807146D1
:100BA00005F0E4BF01BEFEE71EF0040F0CBFEFF33B
:100BB0000880EFF30980816911F8021C91BB01B52F
:100BC00090E80F10E047BDE800508CE80300244B8C
:100BD00093E80600914208BF704741B91EF0100F1C
:100BE00010D12049086820F0010008600AE02CE9D3
:100BF000F00F1EF0100F08BF2CED108AC1F838C09E
:100C000081F822E01A6092F82210906B61F0FF0EDA
:100C10001EF0100F08BFB0EC108AB0E8F00F80F3A0
:100C200009887047104A13689942FAD801B552F8FA
:100C300021C00FC8E047BDE80050CCF80000704765
:100C400001B52AF0F9F8BDE80140EFF3098CBEE7E1
:100C500001B52AF0A1FBBDE80140EFF3098CB6E72E
:100C60005494002034EF00E0C0C2030809488047D4
:100C700009480047FEE7FEE7FEE7FEE7FEE7FEE77E
:100C8000FEE7FEE7FEE7FEE704480549054A064B96
:100C90007047000095C70008C501000840480120C2
:100CA00040E8032040C8032040C8032010B501F0ED
:100CB00088F9001D10BD00BF1508030011F030BBFE
:100CC00070B5A0FB0140B4F1805170F1000024BF69
:100CD000002070BD204600F04CF805001CBF2146E6
:100CE00001F0A7F8284670BD0B3020F007007047D0
:100CF0002DE9F04117460E460446FFF7F5FFA042E6
:100D0000054633D9002F1CBF06F10C0011F03BFB48
:100D100030467468F4B12168A94217D305F108027E
:100D200091423CBF6168416007D3626861194A60C3
:100D30002268521B0A6041602560002F1CBF06F12B
:100D40000C0011F042FB201DBDE8F08120466468D4
:100D5000002CE0D12946304601F03CF90028D7D1DB
:100D6000002F1CBF06F10C0011F02FFB0020BDE886
:100D7000F08110B5044601F01FF901682046BDE876
:100D800010400122B4E770B516460D46041F002836
:100D900008BF70BD002E1CBF05F10C0011F0F3FA66
:100DA0002B465868002818BFA04238BF0346F8D326
:100DB0001968CA18A24218BF5C6003D122681C4699
:100DC0001144196021680A19824218BF606004D179
:100DD00042686260006808442060002E1CBF05F174
:100DE0000C0011F0F2FA70BD10B5044601F0E4F801
:100DF00001682046BDE810400122C4E753EA020C16
:100E000000F069802DE9F04B4FF00006002B1FBF6A
:100E1000B3FA83F503FA05F424FA05F65E4012BF2F
:100E20001643B2FA82F502FA05F4C5F120051EBF99
:100E300022FA05FC44EA0C04203556EA044C4FEA39
:100E4000144418BF641C4FF000084FF00009904292
:100E500071EB030C39D3002919BFB1FA81F701FAFC
:100E600007F6B0FA80F700FA07F6C7F120071EBFB1
:100E700020FA07FC46EA0C062037B6FBF4FCA7EB89
:100E80000507103F07F01F0BCBF120060CFA0BFBF8
:100E90002CFA06F644BFB3460026202FA4BF5E46B8
:100EA0004FF0000B5BEA060C08BF4FF0010B19EB8B
:100EB0000B09ABFB027C48EB0608C01B06FB02CC0F
:100EC0000BFB03CC71EB0C01C1E70B46024641461C
:100ED0004846BDE8F08B13B54FF000004FF000011D
:100EE000AFF30080BDE81C40704710B50446FFF723
:100EF000DDFE0068005DC00602D504F1200010BDD3
:100F0000204610BD0A46014901F0EEBF9847012076
:100F10001CB50C46064B7B4469460090204601F008
:100F200018F904460020694601F026F920461CBD48
:100F30005F1200000FB4044910B503AA029801F033
:100F4000D3FF10BC5DF814FB984701200FB4014695
:100F500010B504AA039801F0C7FF10BC5DF814FB9C
:100F60000FB41CB5084B06AA7B446946009005984F
:100F700001F0EFF804460020694601F0FDF8204634
:100F80001CBC5DF814FB00000D1200000FB47CB512
:100F90000C0009AA009001D02044401E084B7B445D
:100FA00069460190089801F0D4F805461CB100206C
:100FB000694601F0E1F828467CBC5DF814FB0000AE
:100FC000E111000070B5044685690068C10601D5CD
:100FD000302600E02026C00707D070BDD4E90121EB
:100FE00030469047206A401C20626D1EF6D570BDC9
:100FF00070B5044685690078C00707D170BDD4E993
:10100000012120209047206A401C20626D1EF6D5E9
:1010100070BD09684A0501D540B27047C905FCD5C5
:1010200000B2704709684A0501D5C0B27047C905CA
:10103000FCD580B2704770B50C460546012A05D034
:101040002878800600D5EA69002302E0012305E044
:101050005B1C934202D2E05C0028F9D1A869E61833
:10106000C01AA861286A184428622846FFF7AAFF18
:1010700004E0D5E9012114F8010B9047B442F8D3FC
:101080002846FFF7B5FF70BD2DE9F0410646002464
:1010900010687529314616A510D0FFF7BAFF002851
:1010A00002DA404213A507E031688A0701D512A58C
:1010B00002E0490704D511A5012401E0FFF7B2FFC2
:1010C00000210A2206F1240709E0B0FBF2FCB0FB84
:1010D000F2F302FB1C00303078541846491C0028FB
:1010E000F3D123462A463046BDE8F04100F0BEBFAA
:1010F000000000002D0000002B0000002000000078
:101100002DE9FF5F15468A460446DFF8AC80F844B7
:101110000027D8E900103E46CDE9001010E03AF86B
:1011200016106A4602A801F07FFA411C07D0217808
:10113000890603D5E269391891420DD80744761C17
:101140002078800602D5E069B84205DDAE42E6DBD4
:101150003AF816000028E2D1A069C01BA061204621
:10116000FFF730FFD8E90010CDE90010002017E0AC
:101170003AF818106A4602A801F056FAB0F1FF3F9B
:1011800081460BD000250DF1080B05E0D4E90121C3
:101190001BF8050090476D1C4D45F7D308F1010081
:1011A000B0428046E4DB206A384420622046FFF7E4
:1011B0001FFFBDE8FF9F000012C2030030B40021F2
:1011C00000F1240408E002F00705D208303542EAB5
:1011D0004372DB086554491C52EA0305F3D10468E5
:1011E000002310A2250707D5A40600D421B1C469A5
:1011F00001230DA2641EC46130BC00F037BF10B5DE
:10120000044621461068FFF70DFF02462046BDE860
:1012100010400023D2E7D21D22F00701D1E90023BC
:10122000CCE700000000000030000000F0B40D46E4
:101230000188090502D5214C7C4402E01F4C7C4406
:101240000E34002100F1240608E002F00F07120915
:10125000E75D42EA03721B097754491C52EA03070F
:10126000F3D102780023120704D5702D06D009B1FE
:10127000022311342246F0BC00F0F8BE01231034E2
:10128000F8E770B504460D4621461068FFF7CAFE20
:10129000024629462046BDE870400023C6E7D21D1D
:1012A00022F00703D3E90023C0E70368126843F084
:1012B000200303600823C3610023B7E7F0C00300E5
:1012C0002DE9F05F894604464FF0000ADFF874B15B
:1012D000FB44C0F820A02046E1688847002874D06D
:1012E000252806D0D4E901219047206A401C2062BD
:1012F000F1E700265F462046E1688847202805463A
:1013000007DB312D05D2781910F8200C08B10643FF
:10131000F1E7B00701D526F00406C4F81CA00027A9
:10132000C4F818A02A2D09D0284611F025F838B3A2
:1013300004EB8708303DC8F8185019E059F8041B31
:10134000204604EB87029161E1688847012F05463A
:1013500018D1E069002820DA26F020061DE0D8F830
:10136000180000EB800005EB40003038C8F818008A
:101370002046E1688847054610F0FEFF0028EED1C0
:10138000012F0AD02E2D08D12046E16888477F1C06
:101390000546022F46F02006C4DBA069002803DAC8
:1013A000404246F00106A061F00701D026F0100689
:1013B0006C2D0BD0682D09D04C2D39D06A2D35D02D
:1013C000742D35D07A2D33D016E038E0E1682F4601
:1013D00020468847B842054609D16C2F26D04FF4E5
:1013E0008060E168064320468847054604E06C2F8C
:1013F0001AD04FF4807006430DB3A5F141001928AF
:1014000002D8203546F400664A4629462046266022
:101410004E46FEF731FF80B101280BD0F61D26F0B5
:10142000070000F1080956E74020E4E78020D8E7EC
:101430000020D6E706F104094DE7284652E7206A66
:10144000BDE8F09F80C003000FB400B589B00CA9BF
:101450006A4600910B9902F08FFA09B05DF814FB0F
:101460000FB400B58DB010A9099000910B904FF00A
:10147000FF300A9000200C900648784406900648F9
:1014800078446A4607900F9909A800F001FF0DB053
:101490005DF814FB330E00004B0E00002DE9FF5FDA
:1014A0001D464FF0FF3B91464FF000085F46D5E9DF
:1014B0000146A96901987F1C8847296A82468847A6
:1014C0000028F6D1BAF1FF3F0CD0002E24F4C064FE
:1014D00019DD600614D5BAF12B0F09D0BAF12D0F22
:1014E0000ED103E0584604B0BDE8F09F44F4806498
:1014F000A96901987F1C8847761E8246002E02DD6E
:10150000BAF1300F03D0B9F1000F26D032E0A9694B
:10151000761E01987F1C44F400748847002E824692
:1015200005DDBAF1780F06D0BAF1580F03D0B9F142
:10153000000F10D01EE0B9F1000F02D0B9F1100F6A
:1015400018D1A969761E01987F1C24F4007488477D
:101550008246102002E0082000E00A20814609E0CF
:10156000A96908FB0908761E01987F1C44F40074E1
:1015700088478246002E05DD4946504600F074FE3D
:101580000028EDDAE96901988847A00502D46FF0D8
:101590000100A8E7E00725D1600613D5600502D554
:1015A000C8F1000000E0404629680A1D2A60096869
:1015B000220501D5087015E0220701D5088011E049
:1015C00008600FE02868011D29600068210502D528
:1015D00080F8008006E0210702D5A0F8008001E035
:1015E000C0F8008038467EE72DE9FF5F4FF0000825
:1015F0009946144646469169D2E901A7DDF838B00C
:1016000001988847054659EA0B0005D009E0A16911
:101610000198761C88470546216A28468847002895
:10162000F5D1681C03D05FEACA7005D015E04FF011
:10163000FF3004B0BDE8F09F2068011D2160D0F8A4
:1016400000800AE05FEACA7001D108F8015BA16975
:10165000761C01987F1E88470546002F1ADD681CFE
:1016600018D0B9F1000F0DD0E81705EBD06042118A
:1016700020F01F0059F822102A1A01209040014240
:10168000E0D107E0BBF1000FDCD12846216A884792
:101690000028D7D0E16901988847BBF1000F07D136
:1016A000002E05DD5FEACA7002D1002188F8001023
:1016B000A068B84203DDBBF1000F03D017B16FF093
:1016C0000100B6E73046B4E770B50646FFF7F6FA14
:1016D0000468054630460A22002100F009FE2C600D
:1016E00070BD00002DE9F041044616460D464769DD
:1016F000007B80072ED0384610F09EFE50BB3EB3D4
:10170000012E02D0022E25D104E0204600F066F81A
:1017100005441DE0384610F07AFEE168002841F0EB
:101720001001E16005DA204600F006FF0120BDE867
:10173000F081C9030BD56268E16A914200D8114675
:10174000A26911442269891A814200DD08460544D4
:10175000002D01DA0220EAE7E16A6068E26881426E
:1017600006D29103E06203D522F4003141F0100269
:10177000A6690027AE4213DCE16A814201D90B461B
:1017800000E0034603EB060C2369ACEB030CAC450D
:1017900006DD814201D98C4600E084469C4505D196
:1017A000A760276042F02000A5620DE0AD1BE6694E
:1017B000AE1B8142A66000D90846C01A281A2060D4
:1017C0005819606022F0200003490840E0600020C2
:1017D00084F84870ABE70000BFCFD7FF10B50146D3
:1017E000C268900703D0900607D5886A0AE0FFF721
:1017F00065FA01210160881E10BD8B694868184494
:101800000B69C01A91F848301BB191F84910401A81
:1018100010BD1103FCD50028FADD401E10BD2DE9D6
:10182000F04704464FF000094FF0FF37C568D4E990
:101830000486A80707D0204600F0B2FE304610F01C
:10184000D1FD002802DA3846BDE8F087280502D528
:101850004046FFF7C9FA4C21204600F00CFB206DF2
:1018600020F0010020654846EEE770B50C460646BC
:1018700001F14C05284610F086FD2146304618F04F
:101880009CF90446284610F0A0FD204670BD0000DB
:1018900070B505460A4E304610F075FD05F14C0452
:1018A000204610F070FD2846FFF7B9FF0546204698
:1018B00010F08BFD304610F088FD284670BD00000A
:1018C000309400202DE9F04116460F46054600F100
:1018D0004C04204610F057FD324639462846FFF7A3
:1018E00001FF0546204610F070FD2846BDE8F08156
:1018F00070B5044600F14C05284610F044FD207BED
:1019000000F08004284610F060FD204670BD000005
:101910002DE9F041044600F14C07384610F033FD44
:10192000E068810712D0800601D5A66A04E0A169AB
:10193000606808442169461A204600F031FE002202
:10194000054631462046FFF7CDFE00E0002538462B
:1019500010F03BFD2846BDE8F0812DE9F04118B1BB
:10196000BDE8F041FFF7D4BF0B4E0025304610F024
:101970000AFD0A4C6F1E07E02046FFF7C9FF00B1C1
:101980003D46206D20F00104002CF5D1304610F0CA
:101990001CFD2846DFE7000030940020444701206A
:1019A0002DE9F04716468846814602F14C07384635
:1019B00010F0E9FC3046FFF732FF18F8010B612800
:1019C0000AD0722802D077283FD102E001250024F6
:1019D00005E00225042402E0082448F2020518F874
:1019E000010B2B2806D0622809D018F8010C7428A6
:1019F0000AD00BE045F0030544F00204EFE745F0A0
:101A0000040544F00104EAE744F010044846214686
:101A100010F024FD411C18D00021316171604FF499
:101A20000071F560F1617061200704D53046022233
:101A30000021FFF757FE306D40F001003065384659
:101A400010F0C3FC3046BDE8F0870026F7E72DE92B
:101A5000F04115460E460746204C204610F093FCF8
:101A60002A4631463846FFF79BFF0546204610F0D0
:101A7000ACFC2846BDE8F0812DE9F0410E468046D9
:101A8000164D284610F07FFC154C206DC10704D080
:101A9000410804D020F00104F7E7224612E0542068
:101AA000FFF767F9070017D0206D47F001010843E1
:101AB00054212065384600F0DEF907F14C0010F0A3
:101AC00073FC3A4631464046FFF76AFF0446284613
:101AD00010F07BFC2046CDE70024F8E7309400208E
:101AE0004447012010B5002000F0BEFDFEF724FCA5
:101AF000BDE81040012000F055BA401ECAB210F8EF
:101B0000011F8A4202D00029F9D10020704730B568
:101B100005460B462A4613F8014B12F8010B08B193
:101B2000A042F8D01CB1002802D06D1CF1E7284675
:101B300030BD40EA010310B59B070FD1042A0DD335
:101B400010C808C9121F9C42F8D020BA19BA88429E
:101B500001D9012010BD4FF0FF3010BD1AB1D307DD
:101B600003D0521C07E0002010BD10F8013B11F813
:101B7000014B1B1B07D110F8013B11F8014B1B1B3C
:101B800001D1921EF1D1184610BD40EA0103024670
:101B900030B59B0710D14FF0013400E008C208C9EE
:101BA0001D1B9D4315EAC41FF8D013F0FF0102F876
:101BB000011B0DD01B0AF8E711F8013B002B02F8BE
:101BC000013B05D011F8013B002B02F8013BF3D19A
:101BD00030BD2DE9F041054690460E4600200446F2
:101BE00000E0641C44450BD2285DFFF77EF90746F0
:101BF000305DFFF77AF9381A02D1295D0029F0D15A
:101C0000BDE8F0812DE9F0410E460546002400E0D4
:101C1000641C285DFFF769F90746305DFFF765F939
:101C2000381A02D1295D0029F2D1BDE8F0810022E5
:101C3000CBB210F8011B994200D1421E0029F8D105
:101C40001046704710B5431C02E010F8011B71B13B
:101C50008107FAD14FF0013202C88C1A8C4314EA82
:101C6000C211F9D0C01A0A0603D0C01E10BDC01A96
:101C700010BD0A0401D0801E10BD0902FCD0401E18
:101C800010BD421E12F8013F002BFBD111F8013BA1
:101C9000002B02F8013BF9D17047032A40F2308053
:101CA00010F0030C00F0158011F8013BBCF1020F9D
:101CB000624498BF11F801CB00F8013B38BF11F81E
:101CC000013BA2F1040298BF00F801CB38BF00F835
:101CD000013B11F0030300F06780083AC0F0088070
:101CE00051F8043B083A51F804CBA0E80810F5E796
:101CF000121D5CBF51F8043B40F8043BAFF3008079
:101D0000D20724BF11F8013B11F801CB48BF11F8ED
:101D1000012B24BF00F8013B00F801CB48BF00F8BD
:101D2000012B7047431A28BF9A427FF6B6AF032AA9
:101D30001044114440F2268010F0030F1EBF11F82A
:101D4000013D521E00F8013D10F0030F7FF4F6AF85
:101D500011F0030300F0A284083AC0F00B8051F8A0
:101D6000043D083A51F804CD40F8043D40F804CD54
:101D7000FFF7F3BF121D5CBF51F8043D40F8043D6E
:101D8000AFF30080D20724BF11F8013D11F801CD57
:101D900048BF11F8012C24BF00F8013D00F801CD27
:101DA00048BF00F8012C704710B5203AC0F00B80F6
:101DB000B1E81850203AA0E81850B1E81850A0E84F
:101DC0001850BFF4F5AF5FEA027C24BFB1E81850A9
:101DD000A0E8185044BF18C918C0BDE810405FEA19
:101DE000827C24BF51F8043B40F8043B08BF704795
:101DF000D20728BF31F8023B48BF11F8012B28BF9A
:101E000020F8023B48BF00F8012B704701F0FF03A8
:101E1000114601B543EA032242EA024200F00BF800
:101E200001BD02F0FF0343EA032242EA024200F04E
:101E300002B84FF000020429C0F0128010F0030C29
:101E400000F01B80CCF1040CBCF1020F18BF00F8AD
:101E5000012BA8BF20F8022BA1EB0C0100F00DB85C
:101E60005FEAC17C24BF00F8012B00F8012B48BFBA
:101E700000F8012B70474FF0000200B5134694465E
:101E80009646203922BFA0E80C50A0E80C50B1F1D2
:101E90002001BFF4F7AF090728BFA0E80C5048BFE6
:101EA0000CC05DF804EB890028BF40F8042B08BF84
:101EB000704748BF20F8022B11F0804F18BF00F880
:101EC000012B704710B5044610F0030F08BF11F046
:101ED000030F40F015804FF0013E121FC0F20E803C
:101EE00051F8043BA3EB0E0C2CEA030C1CEACE1CAD
:101EF00008BF40F8043BF0D0A1F1040102F1040254
:101F0000521E08DB11F8013B002B00F8013BF7D112
:101F10001146FFF78EFF204610BD00004FF0013C38
:101F200050F8042B51F8043B9A4221D1A2EB0C0348
:101F3000934313EACC1317D150F8042B51F8043B08
:101F40009A4215D1A2EB0C03934313EACC130BD1A5
:101F500050F8042B51F8043B9A4209D1A2EB0C0330
:101F6000934313EACC13DBD04FF00000704700BF5F
:101F7000D01A01BAB1FA81F101F0180122FA01F088
:101F8000CB40C1F12001DBB2C0B2C01A2CFA01F380
:101F9000D11A914311EAC311E6D1704770477047D7
:101FA0007047000001491820ABBEFEE72600020082
:101FB00000487047E446012010B5FFF7F9FF0830EC
:101FC00010BD10B5FFF7F4FF203010BD704770470B
:101FD0007047704738B504460A4600206946AFF39B
:101FE0000080002808BF38BD02460099204600F056
:101FF00080FB012038BD012001F04ABCF8B5AFF3E9
:102000000080054600200C46102000BF0646A81997
:10201000A0420DD9324669460020AFF30080070088
:1020200008BF01F035FC0098A04218BF0546C4194E
:10203000FFF7C2FF05600746F01D20F007004619B4
:10204000284600F00AF8B44208BFF8BDA21B31468A
:102050003868BDE8F84000F04CBB00210160C0E9E1
:1020600001100C3010F0A0B9102070472DE9F04796
:102070000D4699469246044600F1240801688806F8
:1020800004D5E06921F01001216000E00120A842A0
:1020900001DD471B00E00027A1697A1902EB090066
:1020A000081AA0612078C00602D42046FEF78AFFF5
:1020B000002608E0D4E901211AF806009047206ABA
:1020C000401C761C20624E45F4DB2078C0060AD501
:1020D0002046FEF777FF06E0D4E901213020904743
:1020E000206A401C2062381EA7F10107F4DC07E0DB
:1020F000D4E9012118F805009047206A401C2062AD
:10210000281EA5F10105F3DC2046FEF771FF2078BB
:10211000000602D50220BDE8F0870120FBE7116828
:102120000268006A530501D508700AE0D30501D59D
:10213000088006E0130603D5C217C1E9000200E0DB
:10214000086001207047000001694A1C026108789C
:10215000704700B58FB0CDE90131002105910549E7
:102160007944CDE9031011466846FFF7A9F80FB08E
:1021700000BD0000E5FFFFFF0A6802F8010B0A60DE
:102180007047D1E900239A4202D2531C0B601070B1
:10219000704710B5436913B1AFF3008001E0FEF75B
:1021A0004AFF012010BD127800F124010A700022BC
:1021B0004A700122EDE711684FF0FF32E9E710B5F0
:1021C000436913B1AFF3008001E0FEF799FF0120EE
:1021D00010BD128800F1240182840022C2840122F1
:1021E000EDE711684FF0FF32E9E700002DE9F0411B
:1021F0008046D21D22F007020025D2E90002F5290F
:1022000015A614D0011E72F1000106DA0023D0EBEE
:10221000030063EB020211A608E0D8F800108B0758
:1022200001D50FA602E0490701D50EA601251146EA
:10223000002408F1240704E000F07AFA30323A551D
:10224000641C50EA0102F7D12B4632462146404633
:10225000BDE8F041FFF70ABF000000002D000000BC
:102260002B000000200000003A2800D2303820F077
:102270002002412A01D3A2F13700884201D34FF056
:10228000FF307047026811441378016018467047A8
:10229000D1600549794451610449794411620021B2
:1022A0001161114600F040BEEDFFFFFF1D0500006B
:1022B000426842B1016811F8013B23B1521EC0E9E6
:1022C0000012184670470121C160881E704742689D
:1022D0005AB1C368016843B983688B4205D0491E6F
:1022E000521CC0E90012002070474FF0FF307047C9
:1022F0002DE9F04791460F4680460446002614F823
:10230000015B2DB1FEF7D2FC0068405DC007F6D13D
:102310002B2D02D02D2D18D0641E4A46394620465A
:1023200000F0BCFF27B13968A14201D1C7F8008095
:102330004FF0020471050BD54042002803DDFEF783
:10234000BDFC0460A007BDE8F08746F48066E4E7C2
:102350000028F8DAFEF7B2FC04606FF00040F2E704
:102360002DE9F04705460C46C86820F4201040F4DB
:102370008000C860800602D5084600F034F9E068A5
:1023800041F282014FF0FF390140022903D020467B
:1023900000F0D2F8B5E000F42041B1F5004F0FD1C4
:1023A000C00306D56168E06A884200D808466060CC
:1023B00006E02069E0626060606910F028F8A061C2
:1023C000A0680022EEB200280DDAE1688B050AD47D
:1023D000C043A06041F490302260E0606068411C1E
:1023E00061600670A5E0E0689046226040F400500D
:1023F000E060206968BB606910F01EF8012704F1F5
:102400002405A0B1A08910F4407F08D0E069FEF750
:10241000B0FC206118B1E06840F4006016E0E761AC
:102420002561E06820F4407040F480600EE0E069CF
:10243000FEF79FFC00282061F1D0E06840F40060C6
:1024400010F4407FE06002D140F48070E0602069C9
:102450006060E06825696FF0010AC1051FD56168F9
:10246000E06A884200D80846411B04D0224628462C
:1024700000F06CF8F0BBE068010203D5E562C4E946
:10248000015854E0691CE1626160E16940F4803008
:10249000491EC4E9021030462E70BDE8F0870102E3
:1024A00002D500F480320AE06068411C6160067069
:1024B000E0680A2E40F48030E06006D00022E16A35
:1024C0006068814203D90B4602E00122F7E7034628
:1024D000A7895B1B7F0503D4E7699F4200DDE2B15A
:1024E000814200D80146E5620F1AC4E90158002B69
:1024F00009DD00E005E022461946284600F026F8EE
:1025000008B14846C9E747B1A069E5626560C01BEC
:10251000A061E06840F01000E060E068000208D5CB
:102520006168A069E562491B08446560A061504686
:10253000B3E73046B1E70000C16821F4001141F073
:102540008001C16000218160016070472DE9F04782
:10255000814614460E464FF0FF383248D568576919
:10256000054209D03846A1690FF0CDFF002811DBE4
:102570002C48C0430540E5602B4632464946384664
:102580000FF0DBFFA16920F00042B21A11440028CD
:10259000A16103D02046FFF7CFFF4046BDE8F0879A
:1025A00070B504460569C06A6168884200D808466B
:1025B000E16821F42011E160C90312D5A84208D0D6
:1025C0002246411B2846FFF7C1FF10B14FF0FF30F4
:1025D00070BD0020E562C4E90150E06820F480305D
:1025E000E060002070BD10B50446C06820F02000F7
:1025F000E060A16AA06988420DD02046FFF7D0FFB5
:10260000E06820F4405040F01000E060A06AA06153
:102610002069E062606044F24001E0688843E06065
:1026200010BD00001000020070B516460C460546AD
:10263000FEF73CFB036893F80101012806D0FF2C4C
:102640000FD8185D68B101202C7070BDD3F8070158
:102650003246214603F2071303442846BDE8704082
:1026600018474FF0FF3070BD10B501F0F9F8BDE824
:10267000104001F0EFB8431A28BF9A427FF694AB9E
:10268000104410F0030F11441EBF11F8013D521EFB
:1026900000F8013D10F0030F7FF4F6AF103AC0F0E0
:1026A0000A8010B531E91850103A20E91850BFF4EB
:1026B000F9AFBDE81040530724BF31E9081020E905
:1026C000081044BF51F8043D40F8043D12F0030FD8
:1026D00008BF7047D20728BF31F8023D48BF11F844
:1026E000012C28BF20F8023D48BF00F8012C70479C
:1026F000704730B404468C464368002B18BF6345CE
:1027000038BF1846F8D303681844604507D0C81C82
:1027100020F0070000F1040CACEB0100121A214676
:10272000CCF8002030BC00220CF10400FEF72BBBDB
:1027300030B5B0F10A024FEA900E71F100034EEA93
:10274000817EB0EB0E0061EB91014FEA101E4EEA64
:10275000017E10EB0E0041EB11114FEA102E4EEAF4
:10276000016E10EB0E0041EB11214FEA104E4EEAC4
:10277000014E10EB0E0041EB1141401841F10001F8
:102780004FEAD00040EA41704FEAD10110EB8005DA
:102790004FEA810444EA907444EB01046D1944EB60
:1027A0000404521BA3414FF0000348BF0A3200D576
:1027B00030BD401C41F1000130BD10B50446FEF7AC
:1027C00075FA0068005D00F0010010BD70472DE94A
:1027D000FF4F0C461E464FF0FF378BB0D2E9000189
:1027E000DDF860800A908A46C1F30A5505B93D4676
:1027F000002108464FF00000BAF1000F00F440003D
:1028000005DA00EB80004FF4400101EA50004FEA86
:102810009059B9F1010F00DDB9460A9850EA4A0013
:102820000ED044F61050A5F2FF3545432F14B8F1F1
:10283000000F1ED07542291E1EDDC9F100021CE0EA
:10284000B8F1010F4FF0000001D0302103E0F24356
:1028500005E02154401CB042FBDB30460022002141
:1028600021540B99C1F80880C1E900200FB0BDE8E0
:10287000F08FBD1B6D1CDEE74A4600DA694206A8F0
:1028800001F09AF806AB93E8070003AB83E8070072
:1028900050460A9901F0C4FA8DE80700A0F50050EF
:1028A0001F3800900398002D0ADD42F21F014A46AE
:1028B0000844002303A90390684601F02DFD09E0B8
:1028C000A0F500504A461F38002303A9039068462C
:1028D00001F037FD8DE807000004000C03D04FF035
:1028E000FF30410800E01046B8F1000F03D000228D
:1028F000009215461EE0751E05D4FFF719FF303211
:1029000062556D1EF9D5B3460122084302D000225C
:102910007F1C04E02078302801D100227F1E002A8D
:10292000099784D01DE0112D07DAFFF701FF30323F
:1029300062556D1C50EA0102F5D1084302D000989F
:10294000C8B10EE00021681E05E0235C625C6354A0
:102950002254401E491C8142F7DBAB46A81B401E97
:102960000990002004F80B000B98099AC0F8088021
:10297000C0E9002B7AE711264FF0000857E72DE950
:10298000F04F88460446D21D22F0070191B0D1E9EC
:102990000001CDE90A010FF06DFA02460B98C00F55
:1029A00001D02D2007E02068810701D52B2002E00F
:1029B000202101EAC000032A099001D0072A05DB83
:1029C00003464146204600F097FF0BE12078800641
:1029D00001D5E06900E00620B8F1650F814606D018
:1029E000B8F1660F18D0B8F1670F70D131E0002050
:1029F000B9F1110F009001DB112301E009F101038E
:102A00000AAA01A90CA8FFF7E2FEDDE90C70002676
:102A100009F10105834647E001204B4600904FF045
:102A200000470AAA01A90CA8FFF7D1FEDDE90DB005
:102A30000C995D46002610B909F101000D18B9EB9B
:102A4000050003D4C0F1FF3609F10105A5EB09002B
:102A50002BE0B9F1010F01DA4FF001090020B9F1C3
:102A6000110F0090484601DD112300E003460AAA39
:102A700001A90CA8FFF7ABFEDDE90C704D4600265E
:102A80008346207800070AD4AB4500DA5D4601A8EA
:102A9000012D04DD411911F8011C302907D04F45E3
:102AA00002DA17F1040F04DA012082460FE06D1EEE
:102AB000EEE7002F02DCED1B3E4403E0781CA84249
:102AC00000DD7D1CB81B00F1010A4FF000472078A3
:102AD000000703D4AA4501DB4FF0FF3A0021B7F10C
:102AE000004F0DF143088DF8431024D002202B2312
:102AF000002F01DA7F422D230A21021EA0F10100DE
:102B000000DC5FB197FBF1FC97FBF1F201FB1C7C51
:102B100017460CF1300C08F801CDEEE7A8F10100E2
:102B200003702188090501D5452100E06521A0F148
:102B3000010800F8011C09980FA9A1EB0807FF1D67
:102B400000B10120411901EBEA70A1693844081A6B
:102B5000401EA0612078C00602D42046FEF732FA5B
:102B6000099828B1D4E901219047206A401C2062CD
:102B70002078C00622D52046FEF724FA1EE0002E5B
:102B800004DBB34502DD01A8805D00E03020D4E91C
:102B900001219047206A401C2062761CAAF10100A6
:102BA0005FEA000A0AD1FFF70CFAC0680168405CCE
:102BB000D4E901219047206A401C2062281EA5F11B
:102BC0000105DCDC07E0D4E9012118F8010B90478E
:102BD000206A401C2062381EA7F10107F3DC204662
:102BE000FEF706FA032011B041E600002DE9F04F90
:102BF00004460D46D21D22F0070089B0D0E90097A7
:102C0000484639460FF036F90246F80F01D02D2319
:102C100007E02068810701D52B2302E0202101EA8B
:102C2000C0038DF820300BB1012000E00020032A02
:102C3000824601D0072A04DB2946204600F05CFECC
:102C40003FE12078800601D40D2500E0E569C7F357
:102C50000A560D2D49DA00214FEA175B08464FF05E
:102C60000000002F00F4400007DA00EB80004FF472
:102C7000400100EBD07001EA60008115012901DDFF
:102C80004FF0FF3100224FEA850CBCF1180F06D33C
:102C90001346ACF118004FF08052C24003E04FF4ED
:102CA000801323FA0CF30CF10C0CBCF1200F04D3AD
:102CB000ACF1200C09FA0CF001E007FA0CF0002945
:102CC0004FF0004801DD18B90FE00ED140450CD39C
:102CD00019EB02095F4121B9404502D19F4329EA1E
:102CE0000209BBEB175F00D0761C2088000502D5D7
:102CF0007B48784402E07A487844193808AA30239F
:102D000002F80A30037C0AF10101002E0AF1020ADE
:102D100053546A4602DC4FF0300101E04FF03101BC
:102D20004FF001088DF8001002D0A6F2FF3603E044
:102D300059EA470100D06B4E002D02DC21780907CB
:102D400004D54FF002082E218DF80110C446002151
:102D50000BE0C7F303433F01C35C491C6D1E02F83F
:102D60000830052908F1010801DA002DF1DC002105
:102D70000CE000EB1973491C1B786D1E082902F842
:102D800008304FEA091908F1010801DA002DF0DCDA
:102D900021688B0602D516E0A8F10108E04505DDA3
:102DA00002EB080313F8013C302BF5D0B8F1000F0B
:102DB00009DD02EB080313F8013C2E2B03D10907B0
:102DC00001D4A8F10108002D05DD3E2102F808100C
:102DD0006D1E08F10108407C002E02F8080008F181
:102DE000010804DA2D20764202F8080002E02B20C8
:102DF00002F808000A214FF47A70864208F10108AF
:102E00000BDB96FBF0F3303302F8083096FBF0F35F
:102E100008F1010800FB136601E0642E0CDB64205E
:102E200096FBF0F3303302F8083096FBF0F308F12C
:102E3000010800FB136601E00A2E06DB96FBF1F0A9
:102E4000303002F8080008F1010896FBF1F001FBB0
:102E50001060303002F80800A16908F1010808EBA1
:102E6000050202EB0A00081AA0612078C00602D40D
:102E70002046FEF7A7F8216A08AE01EB0A0020629F
:102E800004E0D4E9012116F8010B9047BAF1010AD8
:102E9000F7D22078C00602D52046FEF793F86E469A
:102EA00009E016F8010B3E280FD0D4E90121904724
:102EB000206A401C2062B8F10108F2D22046FEF7D9
:102EC00097F809B00320BDE8F08F206A28442062FB
:102ED00003E0D4E90121302090476D1EEBD3F8E7E1
:102EE00082A6030002FCFFFF2DE9F04114460D46C7
:102EF000074601F14C0630460FF045FA094B7B447A
:102F0000224629463846FFF724F90446287B000666
:102F100001D54FF0FF3430460FF057FA2046BDE898
:102F2000F0810000B96C01002DE9F34F4FF0000A69
:102F30000C4656468DB001200C9001F10C000B9010
:102F400062690B9801219047051E2DD0252D2CD0AC
:102F5000216A8847C0B162690B9801219047216AB4
:102F600088470028F7D16269411E0B98904700E01E
:102F7000761CA1690D988847216A88470028F7D1F7
:102F8000E1690D988847DBE7A1690D988847A84259
:102F9000074601D1761CD3E7E1690D9888477F1C6D
:102FA00002D1BAF1000F6FD06BE162690B98002774
:102FB0003D46394690472A2804D162690B98012181
:102FC00090470125DFF8D08262690B980121904774
:102FD000A0F130010A290AD24745E5DC07EB870159
:102FE00000EB4107303FDFD445F01005ECE7E90680
:102FF00001D46FF000476C280AD04C2814D0682800
:1030000015D06A280DD074281CD07A281AD01DE05B
:1030100062690B98012190476C2802D045F00405A5
:1030200014E045F002050DE045F020050AE0626974
:103030000B9801219047682802D045F0080505E06B
:1030400045F4006562690B9801219047C4E9015776
:1030500065283DD019DC58287AD00CDC452837D0BB
:1030600004DC252826D041289ED131E046282FD0E7
:10307000472899D12CE05B2877D0612828D0632895
:103080007CD0642823D15AE0F6E06F2848D008DCD1
:1030900066281DD067281BD0692821D06E2816D13C
:1030A00027E0702845D0732868D0752847D0782845
:1030B0000DD14DE0A1690D988847252805463FF4BC
:1030C00069AFE1690D9888476D1C3FF46AAFD8E09D
:1030D0000D9923466A466FF00100AFF30080C5E00A
:1030E00045F0400023464FF000026060A80736D448
:1030F0003EE0E8077FF447AF2068011D21600068CB
:10310000290501D506701BE7290701D5068017E7B9
:10311000A90703D5F117C0E9006111E706600FE7C1
:1031200045F0400023464FF008026060A80716D41F
:103130001EE040F60E0125EA0100606016E045F051
:10314000400023464FF00A026060A80707D40FE052
:1031500045F040006060A80708D5234610220D996D
:103160006FF00100AFF3008080E007E010222346FB
:103170000D996FF00100FEF791F977E04FF000092B
:1031800063284F46C8464B46CB4602D05B2806D044
:1031900038E0E80601D40120A060012732E062692E
:1031A000D4F80CB00B98012190475E2807D14FF05E
:1031B000010949466269D4F80CB00B98904721691F
:1031C00039B900210A4603AB43F82120491C0829DC
:1031D000FADBD8B3216949B308F1010862690B9899
:1031E000012190475D28F4D1B9F1000F09D00020EA
:1031F00003A951F82020D24341F82020401C082880
:10320000F7DB03AB2069002820794FEA40701ED01D
:103210005B462246CDF80080CDE901970D99002844
:103220006FF0010020DAAFF300801FE0C11703AA9E
:1032300000EBD1614B1121F01F0102EB8302411A17
:1032400013680120884003431360C7E719E00D9914
:10325000224600286FF00100009702DAAFF30080E9
:1032600004E0FEF7C1F901E0AFF3008000280ADABC
:10327000401C06D10C9820B14FF0FF300FB0BDE8D4
:10328000F08F5046FAE7E90701D10AF1010A064436
:1032900000200C9054E60000CCCCCC0C2DE9F05F63
:1032A000824615468B4600270AF10104B94600788C
:1032B000302801D09DB113E014F8010B01277828C4
:1032C00003D0582801D045B10AE00DB1102D07D127
:1032D000002714F8010B102502E0082500E00A255C
:1032E0000026B0460EE005FB080005FB06F10127AD
:1032F0001FFA80F801EB1046B6F5803F00D3B946BF
:1033000014F8010B2946FEF7AFFF0028EBDABBF1FA
:10331000000F05D00FB1641E00E05446CBF800400A
:10332000B9F1000F06D0FDF7C9FC02210160C81EEB
:10333000BDE8F09F48EA0640FAE7704710B54FF045
:10334000FF34C1688A020FD5036B42689A420BD1E1
:10335000014690F82520104600F0A0FB401C01D14A
:10336000204610BD002010BD11F0C00FF8D1026939
:1033700041689142F4D90268491E521CC0E90021FB
:10338000F0E770B50D4601461446D36850692A46E9
:103390000FF09AF8002807DA411C07D0E16820F006
:1033A000004041F48041E160281A70BD2046FFF7DB
:1033B000C3F84FF0FF3070BDC1680022026021F4F5
:1033C000805141F0400111F4C06FC16001D08260B2
:1033D000704702694168891AC269891A8160704719
:1033E0002DE9F0470446C06840F48000E060010326
:1033F00012D520F40020E060810606D4E26A6168FC
:103400008A4200D80A46511A216040F40010E06058
:1034100094F82500BDE8F08720F40010E0608006F5
:1034200002D52046FFF7DFF8E06842F281014FF055
:10343000FF390140012903D02046FFF77DF8B6E0AF
:103440002168002600290ADAC94340F4805021602F
:10345000C4E902606068411C61600078DAE744F208
:10346000400108420CD020F4A04040F0400026600B
:10347000E06021696068401AE169401AA06096E046
:10348000216991B9C00310D4E069FDF772FC206195
:10349000B0B1E06840F4006010F4407FE06002D119
:1034A00040F48070E06020696060E068D4F814A0A7
:1034B000C1061AD5C0030ED52046FFF771F814E0F7
:1034C00004F1240020610120E061E06820F44070F4
:1034D00040F48060E6E721696068401AA169014410
:1034E00050460FF010F80028A6DBE068C0032AD58C
:1034F0006168E06A884200D808462169451AE06997
:10350000471B1BD02046D4F81880FFF749F808EB7A
:1035100005015046C4F818800EF0F5FF00288BDB3B
:10352000E06840F40030E060000202D5A069284461
:10353000A061E1692069C91B45180DE02046FFF72D
:103540002FF8E769F5E725696168D4E90607491BA3
:10355000E56208446560A061E06820F0100010F4A6
:10356000C06FE06002D0204600F0B4FBE06840F499
:103570008050C4E90260000205D52069E062606005
:103580006FF0010046E7224639462846FFF7F9FE6C
:10359000411C0CD02918E16258B1401E2060681C03
:1035A0006060E06840F40030E060287832E7484628
:1035B00030E765602046FFF7FFFEF8E72DE9F05F92
:1035C0000E4680461C46924602FB06F503F14C006F
:1035D00083460EF0D8FE16B3A768002041E0002F06
:1035E00041DCE069A8421CDAB9F1000F19D022468B
:1035F00029464046FEF7AAFF08B1A76029E0E06827
:1036000010F4C06F01D0002008E022696168891AB7
:10361000E269511AC003A16001D44842A060544637
:1036200018E0A84203DAE06840F40000E0602146B8
:1036300098F80000FEF794FEE16821F40001E160D3
:10364000411C06D0A76800280ADB6D1E08F101089E
:1036500018E0002458460EF0B8FE2046BDE8F09F62
:10366000012081460EE0AF423E4600DD2E46414637
:1036700032466068FEF711FB6068BF1BAD1B30442B
:10368000B0446060002DAADCA760C8E710B56548AB
:103690005421FEF7F0FB64485421FEF7ECFB63482D
:1036A0005421FEF7E8FB62485E49624A624B0160C2
:1036B0005D4810605D4A1A60431C0B65511C016532
:1036C0000120106557484C300EF06EFE56484C30C5
:1036D0000EF06AFE55484C300EF066FE57480EF06C
:1036E00063FE58484F4A56A17844FEF7B0F920B916
:1036F000544878440A3800F03DFB54484A4A52A1E5
:103700007844FEF7A4F920B9504878440A3800F00C
:1037100031FB4F48454A4CA17844FEF798F920B94F
:103720004B4878440A3800F025FB40233D48DC0034
:103730000021224600F001FA20B142487844543872
:1037400000F018FB384822464023002100F0F5F92C
:1037500020B13E487844543800F00CFB33482246F0
:103760001023002100F0E9F9002806D038487844F9
:10377000BDE81040563800F0FDBA10BD2B482DE9C9
:10378000F041006D2D4E20F0010430460EF0FBFD9F
:10379000244D4C3528460EF0F6FD2248FEF73FF842
:1037A00028460EF012FE28460EF0F8FD1E4D4C3550
:1037B00028460EF0E8FD1C48FEF731F828460EF0CA
:1037C00004FE28460EF0EAFD184D4C3528460EF052
:1037D000DAFD1648FEF723F828460EF0F6FD2846D7
:1037E0000EF0DCFD14E0206D20F0010504F14C002A
:1037F00007460EF0C8FD2046FEF711F838460EF0D9
:10380000E4FD38460EF0CAFD2046FDF7EDFA2C46E1
:10381000002CE8D130460EF0D8FD08480EF0BEFD71
:10382000BDE8F0814447012098470120EC47012082
:1038300034940020389400203C94002030940020E0
:1038400072000000F48B030077000000E38B03009C
:10385000D38B0300002801D0FEF7A4BB7047000003
:1038600010B5002102A000F06CFA012010BD00008C
:10387000534947414252543A2041626E6F726D6122
:103880006C207465726D696E6174696F6E00000002
:1038900010B500F077FABDE81040FFF7DBBF7546C2
:1038A000FEF786FBAE4605006946534620F007004A
:1038B000854618B020B5FDF7E7F9BDE820404FF088
:1038C00000064FF000074FF000084FF0000B21F00A
:1038D0000701AC46ACE8C009ACE8C009ACE8C009D7
:1038E000ACE8C0098D46704710B5FEF765FB00686F
:1038F000BDE8104000F075BA2DE9F0411F460446BE
:1039000003260168072A01F4006004DB08B116A54C
:1039100005E016A503E008B115A500E015A521F006
:1039200010002060A069C01EA0610FB1401EA06100
:103930002046FDF747FB4FB1D4E9012138469047B7
:10394000206A401C2062C01C206206E0206AFAE760
:10395000D4E9012115F8010B9047761EF8D22046D4
:10396000FDF746FBBDE8F0814E414E006E616E00F2
:10397000494E4600696E66002DE9F04114460F4637
:10398000064600F14C0528460EF0FDFC0848784438
:10399000A0610848784422463946E0613046FEF787
:1039A00077FC044628460EF010FD2046BDE8F08165
:1039B0005B5C0100A5F9FFFF2DE9F0478146164643
:1039C0008AB0354878440DC88DE80D0032487844F7
:1039D000801C03AC0DC884E80D0041F69B30084400
:1039E000372190FBF1F290FBF1F5A5F1800501FB89
:1039F00012041B3C02D56442012000E00020DFF8E5
:103A000098A080460027FA44AAF1BE0A0EE0E0071B
:103A10000AD03246684607EB470101230AEB8101D1
:103A200000F08FFC8DE8070064107F1C002CEED1A5
:103A3000194F7F44AE3F19E0E80715D007EB04109B
:103A40000DF1180A90E80E008AE80E00C068F042F6
:103A500001D1981908903246012306A903A800F065
:103A600070FC03AB83E807006D10641C002DE3D1EC
:103A70004FF0010332466946B8F1000F03A802D0A7
:103A800000F04AFC01E000F05CFCC9E90001C9F863
:103A900008200AB0BDE8F087409A0300CA68431CBA
:103AA0000FD00D4B1A420CD1D3070AD081F8250054
:103AB0004B680B6300238B6012F0C06F0B6003D068
:103AC00004E04FF0FF30704742F00072034B1A40A1
:103AD000034B1A43CA60704780200800BFFFDFFF16
:103AE000001048002DE9F041044617460D4602F14A
:103AF0004C0080460EF047FC012D264616DD384668
:103B000015F074FD411C0FD0C0B20A2804F8010B57
:103B100002D06D1E012DF2DC0020207040460EF018
:103B200054FC3046BDE8F081B44201D10026F5E7EF
:103B3000387B0006F0D50026EEE72DE9F047044675
:103B40001E4690460D46C7684C3081460EF01BFC61
:103B5000B80714D0780212D44046B8F5807F09D057
:103B6000B0F5007F06D0B8F5806F08D1012604F1CA
:103B7000240506E0701E6FF07F41884201D30124C6
:103B800009E02561E6616560E06820F4706040EA64
:103B90000800E060002448460EF017FC2046BDE80F
:103BA000F0872DE9FF4F06461C468B4681B003F196
:103BB0004C0000900EF0E7FBBBF1000F06D003991C
:103BC0002768002528460BFB01F963E000247AE012
:103BD000002F61DCE06948453FDABAF1000F3CD0C4
:103BE000207B800601D5A06A04E0A16960680844D2
:103BF0002169401A2246A9EB050180463046FFF7AD
:103C0000C0FB002812DD8044A8F101010644A16137
:103C1000226916F8011C0027054411702169491C0E
:103C2000E1626160E16841F40031E160411C03D070
:103C300010B1207B400642D52046FFF7BDFBC4F8FB
:103C4000188020696060E062E068276020F400303E
:103C5000E060E0694042A06018E0484503DAE068AF
:103C600040F40000E0602046FFF7BAFBE16821F471
:103C70000001E160411C08D0811C0AD0276800289F
:103C800007DB6D1C06F8010B19E02760B5FBFBF4A0
:103C900019E00120824612E0A9EB0500B846B842BF
:103CA00000DA8046304642466168FDF7F6FF6168FB
:103CB000A7EB0807464401EB0800454460604D450A
:103CC00086DB2760039C00980EF07FFB05B0204642
:103CD000BDE8F08F2DE9F0470746134881460EF006
:103CE00052FB124C40F2022817E094F85000C00733
:103CF00010D0BC420ED004F14C0528460EF043FB18
:103D0000E66828460EF061FB38EA060002D120463C
:103D1000FDF7FEFD206D20F00104002CE5D14846A2
:103D20000EF053FBBDE8F08730940020444701209B
:103D300010B50446AFF300802046BDE81040FCF704
:103D40000EBB70B505460C460A2000E06D1C00F065
:103D500041F835B128780028F8D102E0641C00F061
:103D600039F814B120780028F8D1BDE870400A2055
:103D700000F030B810B500F039F8BDE81040FFF79A
:103D800069BD000010B5012805D0002103A0FFF790
:103D9000D8FF012010BD09A1F8E7000053494752A0
:103DA000544D454D3A204F7574206F66206865610B
:103DB00070206D656D6F7279000000003A204865D3
:103DC0006170206D656D6F727920636F72727570AE
:103DD0007465640008B569468DF800000320ABBE29
:103DE00008BD10B50C300EF0D9FA10BD10B5014663
:103DF00002A0FFF7A6FF012010BD00005349475263
:103E0000545245443A2052656469726563743A209D
:103E100063616E2774206F70656E3A2000000000A9
:103E20005FEA400C08BF91F0000F4FEA8C234FEA85
:103E3000C12243EA51514FEA1C5018BF00F5F0402F
:103E40004FEA300018BF41F000415FEA6C5C00F0BF
:103E50002980BCF1FF3F08BF40F080407047130C41
:103E600006BF12044FF0100C4FF0000C130E04BFED
:103E700012020CF1080C130F04BF12010CF1040C18
:103E8000930F04BF92000CF1020CD30F04BF520039
:103E90000CF1010C11464FF00002A0F11F00A0EB45
:103EA0000C00704711F0004F08BF704731F000411F
:103EB0003FF4D5AF0B0C06BF09044FF0100C4FF0C8
:103EC000000C0B0E04BF09020CF1080C0B0F04BF11
:103ED00009010CF1040C8B0F04BF89000CF1020CDA
:103EE000CB0F04BF49000CF1010CCCF12003A0EB77
:103EF0000C0022FA03F302FA0CF241EA030100F18A
:103F00000100704720F07F4C80EA030023F07F47D8
:103F1000ACEB070303F57C5300F0004003F1FF0313
:103F20002DE980494FEA154B09B44FEA144325EABD
:103F30000B4E24EA03480FF2042606EB1327490828
:103F40003E785FEA320203FB0667C7F5000707FB0E
:103F500006F64FEA54374FEAD64606F1020607FB4B
:103F6000066CCCF1005C4FEA1C472CEA074C07FBBF
:103F700006F40CFB06F504EB15464FEA961634BF23
:103F800000204FF000404FEAD13706FB07FC4FEA14
:103F90001C4C0CFB0BF7D21B03FB0CF761EB07016E
:103FA0000CFB0EF7B0EB074072EB17420CFB08F767
:103FB00034BFA2EB0742B2EB074261EB17414FEA75
:103FC0000C444FEA910706FB07FC4FEA1C4C0CFB24
:103FD0000BF7B0EBC74072EB573203FB0CF734BF63
:103FE000A2EBC742B2EBC74261EB57310CFB0EF7B5
:103FF000B0EBC70072EB57720CFB08F734BFA2EBB3
:10400000C702B2EBC70261EB5771039F4FEA8161B0
:1040100041EA921104EBCC044FEAD1374FEA8262B5
:1040200006FB07FC42EA90124FEA80604FEA1C4C04
:104030000CFB0BF7D21B03FB0CF761EB07010CFB2E
:104040000EF7B0EB074072EB17420CFB08F734BFDA
:10405000A2EB0742B2EB074261EB17414FEA8C55E6
:104060004FEA910704EB9C2406FB07FC4FEA1C4C2B
:104070000CFB0BF7B0EBC74072EB573203FB0CF7AE
:1040800034BFA2EBC742B2EBC74261EB57310CFB26
:104090000EF7B0EBC70072EB57720CFB08F734BF9A
:1040A000A2EBC702B2EBC70261EB577115EB4C25CF
:1040B0004FEA816141EA92114FEA82624FEAD137B9
:1040C00042EA901206FB07FC44F100044FEA8060CC
:1040D0004FEA1C4C0CFB0BF7D21B03FB0CF761EBFC
:1040E00007010CFB0EF7B0EB074072EB17420CFB1D
:1040F00008F734BFA2EB0742B2EB074261EB17416E
:1041000015EB1C154FEA813141EA92414FEA8232A8
:1041100042EA90424FEA80304FEA0C7644F10004C4
:1041200048EA03434EEA0B484FF0000EB2EB080C8E
:1041300071EB030724BF624639464EEB0E0E4FF07B
:10414000000B0018524149414BEB0B0BB2EB080C32
:1041500071EB03077BF1000B24BF624639464EEB3F
:104160000E0E4FF0000B0018524149414BEB0B0B68
:10417000B2EB080C71EB03077BF1000B24BF624626
:1041800039464EEB0E0E51EA020718BF46F0010603
:1041900016EB0E7655F1000254F1000103D5BDE88F
:1041A0008901BDE80088BDE88901BDE80048B6196D
:1041B000524141EB0101A3F10103704780807F7EF2
:1041C0007D7C7B7A7978777676757473727171708D
:1041D0006F6E6E6D6C6C6B6A6A696868676666653F
:1041E0006464636362616160605F5F5E5E5D5D5CCD
:1041F0005C5B5B5A5A59595858575756565555553E
:104200005454535352525251515050504F4F4F4E9D
:104210004E4D4D4D4C4C4C4B4B4B4A4A4A494949EB
:10422000484848474747474646464545454444442D
:10423000444343434342424242414141002B9C4656
:1042400030D477002BD01CB54FEA370703B44FF0BA
:1042500010004FF01001BAF1000F06D0BCF1000FB2
:10426000DCBF40F0080040F008014FF000000FBC38
:10427000BDE810400BF1010BBBF1010F08BF5FEA75
:10428000170722BF12F1010211F101014FF00041A5
:1042900043F1000300F0004043EA00007047F9D307
:1042A0005708D0E746EA064613F1400F4FEA164694
:1042B0001FDD13F1200FDFBF16430A460021203314
:1042C0005B42BED0C3F1200746EA064602FA07F772
:1042D0004FEA164646EA0706C3F1200722FA03F220
:1042E00001FA07F721FA03F14FF0000342EA07024F
:1042F000A7E746EA020646EA06464FEA164646EAB7
:104300000106BCBF46EA0646360C4FF000034FF0EC
:1043100000024FF0000194E72DE9804C9A46934645
:1043200070B491E8380007C831EA400C48BF34EA5D
:10433000430C03D5FFF7E6FDFFF780FFF0BCBDE8B7
:10434000008C2DE9804C9A46934670B491E8380071
:1043500007C810F0804F08BF13F0804F03D100F062
:1043600005F8FFF76BFFF0BCBDE8008C20F07F473D
:1043700080EA030023F07F4C07EB0C03A3F57C538A
:1043800000F00040A3F1FE0392F0000F00F0B380B4
:1043900095F0000F00F077802DE901494FEA1140B8
:1043A0004FEA144621EA004800FB06FC24EA0647CF
:1043B00008FB06F607FB08F800FB07F718EB0648B2
:1043C0004CEB164C4FEA124B18EB07484FEA1546D8
:1043D0004CEB174022EA0B4E0BFB06FC25EA064786
:1043E0000EFB06F607FB0EFE0BFB07F71EEB064E59
:1043F0004CEB164C4FF000061EEB074E4CEB174BE8
:1044000018EB0B0840F1000018EB0E0B58EB0008FE
:1044100040F100008F1A4FF000013CBFC943661BFA
:1044200014BFB5EB040C00213CBFC943F61B4FEA97
:1044300017444EEA8E0E27EA04454FEA1C4704FB58
:1044400007622CEA074C05FB07F70CFB05F604FB9B
:104450000CFC16EB074642EB174216EB0C4642EB00
:104460001C421BEB060658EB0202414146EA9E063F
:1044700001D5BDE80189B619524141EB0101A3F113
:104480000103BDE801894FEA14454FEA114724EAC8
:10449000054621EA074C05FB07F406FB07F70CFB72
:1044A00006F105FB0CFC11EB074144EB17444FEA06
:1044B000124711EB0C4144EB1C4422EA074C05FB6C
:1044C00007F206FB07F70CFB06F605FB0CFC16EBE8
:1044D000074642EB174216EB0C4642EB1C456A18A6
:1044E00054F1000148BF7047B619524141EB010138
:1044F000A3F10103704795F0000F37D04FEA114246
:104500004FEA144721EA024624EA074C02FB07F16E
:1045100006FB07F70CFB06F402FB0CFC14EB07444C
:1045200041EB17414FEA154714EB0C4441EB1C419A
:1045300025EA074C02FB07F506FB07F70CFB06F61E
:1045400002FB0CFC16EB074645EB174516EB0C4639
:1045500045EB1C42121951F1000148BF7047B619D2
:10456000524141EB0101A3F1010370474FEA1445A9
:104570004FEA114724EA054621EA074C05FB07F1FB
:1045800006FB07F70CFB06F24FF0000605FB0CFCE0
:1045900012EB074241EB174112EB0C4251EB1C416D
:1045A00048BF7047921841EB0101A3F10103704726
:1045B00010B50446FDF7D1F908B1012010BD6069BE
:1045C000BDE810400DF0FABC10B50A48006800685C
:1045D00000F0020010B908A02CF0B0FA042109483C
:1045E000006825F045FF6FF0120002490968086075
:1045F00010BD000058850020414443206E6F2045C7
:104600004F4300005085002070B52348808B00F098
:10461000040010B94FF0FF3070BD00241F4805683A
:1046200000201E4908601D481038006820F009006D
:104630001A49103908601A4801F0D4FD00B1641E0F
:10464000184801F0CFFD08B14FF0FF3402E01348E5
:104650004430006811480C3000680028F7D10E483B
:10466000406820F001000C4948600846406820F08E
:10467000080048600846406820F04000486008464E
:10468000406820F08000486007480449091F08601E
:10469000081D05602046BFE7A42301203C2C0140F3
:1046A000E422012044230120FF05400010B501460B
:1046B000632904DD642091FBF0F400FB14110A204F
:1046C00091FBF0F291FBF0F400FB141343EA0210AB
:1046D000C0B210BD01460548808B00F0020010B941
:1046E0004FF0FF3070476FF00300FBE7A423012079
:1046F00071B583B00020394908603948006801234A
:104700001A4603A946691220B04705460220002335
:104710006AB219460090184610F070FC002400E0C0
:10472000641C2E48006800F001000028F8D0032027
:10473000002300902948006842B20121184610F079
:104740005DFC0020254908602548006800230122FF
:1047500002A986691220B0470546042000909DF802
:104760000C306AB20021012010F048FC00E0641C0B
:104770001A48006800F001000028F8D019480068C5
:10478000844201DD1748046005200023009013488F
:10479000006842B20121184610F030FC9DF80C0070
:1047A00011490968884206D19DF808209DF80C102F
:1047B0000EA011F060FA9DF80C00232809DA9DF88C
:1047C00008000D499DF80C2088540C499DF80C20D8
:1047D00088549DF8080004B070BD0000EC890020EA
:1047E000D0890020F0890020008A002020522578FE
:1047F0003A25303278200A005FEF00203CEF00209D
:104800002DE9FC4104460E4600200346324621466F
:104810000090374811F006FA36480068844204D107
:104820003246214634A011F026FA00258DF80440C6
:104830008DF8056000203449086034480068002382
:10484000022201A9D0F814C01220E0470746062032
:1048500023467AB200210090084610F0CFFB1EE0FC
:104860006D1CB5F57A7F1ADD3246214628A012F07C
:10487000F5FF2E480068401C2C4908600846006877
:10488000102802DD2AA02CF059F92848006803F00E
:1048900079FB31462046FFF7B3FFBDE8FC811A489B
:1048A000006800F001000028DAD026480068854240
:1048B00001DD2448056007200023009012480068AD
:1048C00042B20121184610F099FB2046FFF710FF75
:1048D0008046082023464FFA88F271B200900420E7
:1048E00010F08CFB00201149086000BFD5E70000E4
:1048F0000D030300008A0020577220522578203DC6
:104900002025303278200A00EC890020D089002050
:104910004932432054782068616E672C20723D250F
:104920006420763D3078257800000000F88900206A
:1049300043616E277420726573746172742049320A
:10494000430A0000F08900202DE9F04186B080463E
:104950000C466848808B00F0020020B94FF0FF3011
:1049600006B0BDE8F081B8F10E0F75D2DFE808F0AF
:10497000BC0734455EBCBC83BCBC92BC96A5274634
:104980005D48874200D300BF5B483844401EB0FBFF
:10499000F7F6022E01D2002600E0B61EFF2E00D947
:1049A000FF265648006840F2FF41884340F480707B
:1049B000304352490860B01C4F49B1FBF0F7B425B1
:1049C00000E06D1E002DFCD14A48808B40F00400B1
:1049D000484988833846C3E714B1012C08D106E062
:1049E0004648006820F400504449086003E002E0B3
:1049F0006FF00300B4E700BF79E01CB1012C03D1D4
:104A0000122504E0022502E06FF00300A8E700BFD2
:104A100004200190029501200390032004900C20B3
:104A2000059001A9364801F007FF60E024B1012C90
:104A300009D0022C1AD110E03048006820F4C05090
:104A40002E49086015E02D48006820F4C05040F45D
:104A500000602A4908600CE046E02848006820F41D
:104A6000C05040F480502549086002E06FF0030018
:104A700076E700BF3BE034B12048006820F40070C6
:104A80001E49086005E01D48006840F400701B499D
:104A900008602CE019482030046028E01548406880
:104AA00020F040001349486014483830006840F452
:104AB000800012493831086019E034B10D48808B0C
:104AC00040F080000B4988830DE00A48808B20F07D
:104AD00080000849888309482830006820F4007065
:104AE00006492831086002E06FF0030038E700BF94
:104AF000002035E7A4230120006CDC02042C0140D7
:104B0000000C024010B50748006800F074640548C6
:104B10008068204303498860A015034903F07AFEAA
:104B200010BD0000006002404C18030810B5074893
:104B3000406800F03D040548C06820430349C86050
:104B40000349204603F07CFE10BD000000600240D7
:104B50004C18030810B53B2001F09AFF014801F002
:104B6000C7FB10BDE422012010B5452001F090FFE5
:104B7000014801F0BDFB10BD442301200146087827
:104B800010381823B0FBF3F20848805CC865032A8C
:104B900005D908686FF30900001D886503E00868FF
:104BA0006FF309008865886D7047000054C50308DD
:104BB000014600208A6A8B69CBB932B1012A0DD037
:104BC000022A03D0032A10D10EE000BFCB6A03F003
:104BD0008073B3F1807F00D1012007E0CB6AB3F18D
:104BE000C07F00D1012001E000E000BF34E08B690C
:104BF000B3F5005F1AD132B1012A07D0022A03D0DF
:104C0000032A11D10AE000BF01200EE0CB6A03F0B5
:104C10008073B3F1807F00D1012006E0CB6AB3F14D
:104C2000C07F00D1012000E000BF15E032B1012AB1
:104C300005D0022A04D0032A0CD103E000BF00BF34
:104C4000012008E0CB6A03F08073B3F1807F00D1CC
:104C5000012000E000BF00BF704730B50468246841
:104C600024F4802405682C60046863608468402C08
:104C700004D10468A2600468E16003E00468A160F4
:104C80000468E26030BD10B5002016F089FC10BD4C
:104C900010B5002016F084FC10BD10B5002016F0F1
:104CA0007FFC10BD10B5002016F07AFC10BD10B5C9
:104CB000002016F075FC10BD10B5002016F070FC39
:104CC00010BD000010B504463CB301211C2016F0B5
:104CD00099F9122000280DDB00BF00BF00F01F0271
:104CE000012191404209920002F1E022C2F8001134
:104CF00000BF00BF00BF2048006840F480701E491C
:104D000008601E480068806840F001001B4909687F
:104D1000886001202BF0DEFE2DE000211C2016F023
:104D200071F91220002817DB00F01F0201219140C9
:104D3000134A430942F8231000BF00BF00BFBFF36E
:104D40004F8F00BF00BF00BF00BF00BF00BFBFF359
:104D50006F8F00BF00BF00BF00BF0748006820F48E
:104D600080700549086005480068806820F00100EF
:104D700002490968886010BD443802405885002007
:104D800080E100E008B54C4988420FD100BF002106
:104D900000914A49096841F00101484A11601146F1
:104DA000096801F00101009100BF84E04449884294
:104DB0000FD100BF002100914049096841F0020174
:104DC0003E4A11601146096801F00201009100BFDE
:104DD00071E03C4988420FD100BF00210091374962
:104DE000096841F00401354A11601146096801F073
:104DF0000401009100BF5EE0334988420FD100BF3B
:104E0000002100912D49096841F008012B4A1160E9
:104E10001146096801F00801009100BF4BE02B49E1
:104E200088420FD100BF002100912449096841F058
:104E30001001224A11601146096801F01001009129
:104E400000BF38E0224988420FD100BF0021009105
:104E50001A49096841F02001184A11601146096891
:104E600001F02001009100BF25E01A4988420FD1CE
:104E700000BF002100911149096841F040010F4A2B
:104E800011601146096801F04001009100BF12E075
:104E9000114988420FD100BF0021009107490968DC
:104EA00041F08001054A11601146096801F0800156
:104EB000009100BF00BF08BD000002403038024032
:104EC0000004024000080240000C024000100240B2
:104ED0000014024000180240001C024008B54C4972
:104EE00088420FD100BF002100914A49096841F072
:104EF0000101484A11601146096801F00101009161
:104F000000BF84E0444988420FD100BF00210091D6
:104F10004049096841F002013E4A116011460968A2
:104F200001F00201009100BF71E03C4988420FD1BD
:104F300000BF002100913749096841F00401354A5A
:104F400011601146096801F00401009100BF5EE0A4
:104F5000334988420FD100BF002100912D490968D3
:104F600041F008012B4A11601146096801F008015F
:104F7000009100BF4BE02B4988420FD100BF0021B8
:104F800000912449096841F01001224A116011463C
:104F9000096801F01001009100BF38E02249884201
:104FA0000FD100BF002100911A49096841F020018A
:104FB000184A11601146096801F02001009100BFF4
:104FC00025E01A4988420FD100BF00210091114904
:104FD000096841F040010F4A11601146096801F06B
:104FE0004001009100BF12E0114988420FD100BF7B
:104FF000002100910749096841F08001054A1160CC
:105000001146096801F08001009100BF00BF08BD92
:105010000000024030380240000402400008024014
:10502000000C024000100240001402400018024030
:10503000001C024008B54C4988420FD100BF002136
:1050400000914A49096841F00101484A116011463E
:10505000096801F00101009100BF84E044498842E1
:105060000FD100BF002100914049096841F00201C1
:105070003E4A11601146096801F00201009100BF2B
:1050800071E03C4988420FD100BF002100913749AF
:10509000096841F00401354A11601146096801F0C0
:1050A0000401009100BF5EE0334988420FD100BF88
:1050B000002100912D49096841F008012B4A116037
:1050C0001146096801F00801009100BF4BE02B492F
:1050D00088420FD100BF002100912449096841F0A6
:1050E0001001224A11601146096801F01001009177
:1050F00000BF38E0224988420FD100BF0021009153
:105100001A49096841F02001184A116011460968DE
:1051100001F02001009100BF25E01A4988420FD11B
:1051200000BF002100911149096841F040010F4A78
:1051300011601146096801F04001009100BF12E0C2
:10514000114988420FD100BF002100910749096829
:1051500041F08001054A11601146096801F08001A3
:10516000009100BF00BF08BD00000240303802407F
:105170000004024000080240000C024000100240FF
:105180000014024000180240001C024008B54C49BF
:1051900088420FD100BF002100914A49096841F0BF
:1051A0000101484A11601146096801F001010091AE
:1051B00000BF84E0444988420FD100BF0021009124
:1051C0004049096841F002013E4A116011460968F0
:1051D00001F00201009100BF71E03C4988420FD10B
:1051E00000BF002100913749096841F00401354AA8
:1051F00011601146096801F00401009100BF5EE0F2
:10520000334988420FD100BF002100912D49096820
:1052100041F008012B4A11601146096801F00801AC
:10522000009100BF4BE02B4988420FD100BF002105
:1052300000912449096841F01001224A1160114689
:10524000096801F01001009100BF38E0224988424E
:105250000FD100BF002100911A49096841F02001D7
:10526000184A11601146096801F02001009100BF41
:1052700025E01A4988420FD100BF00210091114951
:10528000096841F040010F4A11601146096801F0B8
:105290004001009100BF12E0114988420FD100BFC8
:1052A000002100910749096841F08001054A116019
:1052B0001146096801F08001009100BF00BF08BDE0
:1052C0000000024030380240000402400008024062
:1052D000000C02400010024000140240001802407E
:1052E000001C024010B5602007F0C2F810B94FF062
:1052F000FF3010BD0020FCE738B50446C4F30B00B6
:1053000010B14FF0FF3038BD002007F0B1F810B9F0
:105310004FF0FF30F7E7012000231A4621460090A6
:10532000202006F085FF10B94FF0FF30EBE700209A
:10533000E9E700000146074A12780AB9002008E0B0
:10534000054AC1F3C623D25CC1F30223DA4002F05E
:105350000100704780F8032000F803202DE9F04198
:1053600007460E46154605F0020080B905F001001B
:1053700030B1314607F10C00FBF715F8044615E093
:10538000314607F10C00FBF721F804460EE0FC68FB
:1053900005F0010018B104EA0600B04205D105F09D
:1053A000010018B904EA060000B900242046BDE84F
:1053B000F08170B504460D46294604F10C00FAF759
:1053C000DDFF0646304670BD70B500BF0C488669EB
:1053D00000F076FA054600BF294609481830FBF769
:1053E000AFFB044600BFB442F0D1A54206D200BFD5
:1053F00003481030FBF79BFB00BF00BF284670BD81
:1054000080F803202DE9F04104460D46164620465B
:10541000FFF790FF10B90120BDE8F081FFF7D4FF3E
:105420000746A4B200BFEFF3058010B14FF400208F
:1054300000E00020044344F0407033462A463946D9
:1054400000F0CAF880464046E6E72DE9F05F0446E2
:105450000F4690469946DDF828A02046FFF76AFFE0
:1054600010B90120BDE8F09FFFF7AEFF8346A4B25C
:1054700000BFEFF3058010B14FF4002000E00020E2
:10548000044300F019FE4FF4E02101EA004544EA2C
:10549000050141F0807043463A46594600F09CF8B9
:1054A00006460EB90020DDE745F0010141F000702D
:1054B00053464A46594600F08FF806463046D1E733
:1054C0002DE9FC47044688461546B8F1000F02D086
:1054D000B5F5807F02D90020BDE8FC872046FFF7A4
:1054E00029FF08B90120F7E7FFF76EFF8246A4B253
:1054F00000BFEFF3058010B14FF4002000E0002062
:105500000443464645B900231A465146204600F05A
:1055100063F807463846DFE7082D16D800200090CC
:1055200001902A4631466846FCF7B7FB4FF4E0206D
:1055300000EA0540044344F040705146DDE9002391
:1055400000F04AF807463846C6E700F0B5FD4FF4CC
:10555000E02101EA00493068009070680190083647
:10556000083D44EA090444F080705146DDE9002317
:1055700000F032F807460FB90020ADE74FF6017092
:1055800049EA000410E03068009070680190083625
:10559000083D51462046DDE9002300F01DF807468E
:1055A000641C0FB9002097E7082DECD8002000906C
:1055B00001902A4631466846FCF76FFB24F47F448D
:1055C00044EA052444F000705146DDE9002300F070
:1055D00003F8074638467FE72DE9FF4F81B088463C
:1055E00091469A464FF0070B51E000BF2E48FBF75B
:1055F0009EFA064606F07F002C4901EB0014F009E4
:105600004FF4700101EA00510091DDE900100843F8
:105610004FF0805101EAD80108434FF0005101EAF0
:10562000990108434FF0804101EA5A01084340F0D4
:105630004065294604F10C00FBF78AFA054605F09F
:10564000806010B385F0806585F0004505F0004767
:1056500028F000403843206029F000403843606063
:105660002AF000403843A060294604F10C00FBF703
:1056700080FA48B100BF0C48001DFBF758FA00BF84
:10568000012005B0BDE8F08F04E0ABF1010BBBF1E8
:10569000000FAAD100BF00BF03480830FBF747FA4C
:1056A00000BF0020EDE7000084F8032000F0032095
:1056B000F0B506460C461546FF2C01D2FF2D01D34E
:1056C0000020F0BD002200231AE001209840304065
:1056D000A0B1214610E002EBD1000B4F385C01F085
:1056E000070C012707FA0CF7B84302EBD107DFF8E4
:1056F00018C00CF80700491CA942ECD920325B1CE9
:10570000042BE2D30120DCE700F80320F0B50646C5
:105710000C461546FF2C01D2FF2D01D30020F0BD11
:10572000002200231AE0012098403040A0B1214619
:1057300010E002EBD1000B4F385C01F0070C0127A1
:1057400007FA0CF7384302EBD107DFF818C00CF862
:105750000700491CA942ECD920325B1C042BE2D380
:105760000120DCE700F803202DE9F05F824689463E
:1057700000204149087080214048FCF77CFB18213B
:105780003F4810F06FF880463B48006A3D49884228
:1057900008D00846384908620846A0F8028001206F
:1057A000C8610FE034484088404506D03248A0F830
:1057B000028001203049C86104E02F48C069401CC4
:1057C0002D49C8612C48C06901280BD100202A4905
:1057D000487048608860C8604FF400612A48FCF750
:1057E0004AFB0FE000270BE0274800EB0715E868AD
:1057F00000F0806018B1E86820F04060E8607F1C2D
:10580000802FF1D31C48C06901280FD100F064F843
:1058100004461CB100F05AF8064600E0002616487F
:105820004661002014498861086102E000F054F8E4
:105830000446ECB1FE2200215046FFF767FFEF223D
:1058400011460F20FFF762FFFE2211460420FFF7EA
:105850005DFFFFF7B9FD8346074800235946C2693B
:105860000A48FFF7B9FEB9F1000F01D000F010F8B7
:105870002046BDE8F09F000080F8032000F80320D8
:10588000C8C203086B27A5E100F0032000FF000356
:1058900010B50948007808B1012010BD0120064963
:1058A0000870FFF791FD044600231A46214603487D
:1058B000FFF792FE0120F0E780F8032001FF0003CC
:1058C0000148406870470000001000E0014800688F
:1058D00070470000EC9300200648006840F080709C
:1058E000044908600448006840F00100024908606B
:1058F00001207047FCED00E0001000E001460022AE
:1059000048F23310FFF77EBD0A4601460148FFF713
:1059100079BD00001E8102000146002248F25710A6
:10592000FFF770BD08B5009313460A4601460248CA
:10593000FFF78BFD08BD00005F8103000A460146AA
:105940000148FFF7BDBD00005981030008B50023E1
:10595000009313460A46014648F23610FFF775FDDC
:1059600008BD08B50023009313460A46014648F2D5
:105970003710FFF76AFD08BD0146002248F21430D7
:10598000FFF740BD0146002248F21630FFF73ABD4E
:1059900008B5009313460A46014648F23460FFF703
:1059A00054FD08BD08B50023009313460A4601467E
:1059B00048F23360FFF749FD08BD08B50093134670
:1059C0000A46014648F23560FFF73FFD08BD10B5B5
:1059D0000446002221464FF47140FFF713FD10BD2D
:1059E00010B50446002221460148FFF70BFD10BD0B
:1059F00015F1010010B50446002221460148FFF7C9
:105A000001FD10BD16F1010010B50446002221462B
:105A10000148FFF7F7FC10BD13F1010010B5044673
:105A2000002221460148FFF7EDFC10BD14F10100F2
:105A300010B5002211460248FFF7E4FC10BD00003B
:105A400001F1010010B5002211460248FFF7DAFC0F
:105A500010BD000002F1020010B5002211460248FC
:105A6000FFF7D0FC10BD000007F1010010B50022C7
:105A700011460248FFF7C6FC10BD000008F1020005
:105A8000F8B504460D4616461F4633462A462146BB
:105A900002480097FFF7D9FCF8BD000001F00200B2
:105AA00070B504460D462A4621460248FFF7AAFC77
:105AB00070BD000004F00200F8B504460D4616461D
:105AC000002033462A46214600900248FFF7BDFCDD
:105AD000F8BD000005F00200F8B504460D46164674
